{
  "contractName": "Donation",
  "abi": [
    {
      "anonymous": false,
      "inputs": [
        {
          "indexed": false,
          "internalType": "uint256",
          "name": "id",
          "type": "uint256"
        },
        {
          "indexed": false,
          "internalType": "string",
          "name": "hash",
          "type": "string"
        },
        {
          "indexed": false,
          "internalType": "string",
          "name": "description",
          "type": "string"
        },
        {
          "indexed": false,
          "internalType": "uint256",
          "name": "donationAmount",
          "type": "uint256"
        },
        {
          "indexed": false,
          "internalType": "address payable",
          "name": "author",
          "type": "address"
        }
      ],
      "name": "DonateImage",
      "type": "event"
    },
    {
      "anonymous": false,
      "inputs": [
        {
          "indexed": false,
          "internalType": "uint256",
          "name": "id",
          "type": "uint256"
        },
        {
          "indexed": false,
          "internalType": "string",
          "name": "hash",
          "type": "string"
        },
        {
          "indexed": false,
          "internalType": "string",
          "name": "description",
          "type": "string"
        },
        {
          "indexed": false,
          "internalType": "uint256",
          "name": "donationAmount",
          "type": "uint256"
        },
        {
          "indexed": false,
          "internalType": "address payable",
          "name": "author",
          "type": "address"
        }
      ],
      "name": "ImageCreated",
      "type": "event"
    },
    {
      "inputs": [],
      "name": "imageCount",
      "outputs": [
        {
          "internalType": "uint256",
          "name": "",
          "type": "uint256"
        }
      ],
      "stateMutability": "view",
      "type": "function",
      "constant": true
    },
    {
      "inputs": [
        {
          "internalType": "uint256",
          "name": "",
          "type": "uint256"
        }
      ],
      "name": "images",
      "outputs": [
        {
          "internalType": "uint256",
          "name": "id",
          "type": "uint256"
        },
        {
          "internalType": "string",
          "name": "hash",
          "type": "string"
        },
        {
          "internalType": "string",
          "name": "description",
          "type": "string"
        },
        {
          "internalType": "uint256",
          "name": "donationAmount",
          "type": "uint256"
        },
        {
          "internalType": "address payable",
          "name": "author",
          "type": "address"
        }
      ],
      "stateMutability": "view",
      "type": "function",
      "constant": true
    },
    {
      "inputs": [
        {
          "internalType": "string",
          "name": "_imgHash",
          "type": "string"
        },
        {
          "internalType": "string",
          "name": "_description",
          "type": "string"
        }
      ],
      "name": "uploadImage",
      "outputs": [],
      "stateMutability": "payable",
      "type": "function",
      "payable": true
    },
    {
      "inputs": [
        {
          "internalType": "uint256",
          "name": "_id",
          "type": "uint256"
        }
      ],
      "name": "donateImage",
      "outputs": [],
      "stateMutability": "payable",
      "type": "function",
      "payable": true
    }
  ],
  "bytecode": "0x60806040526000805534801561001457600080fd5b50610ee5806100246000396000f3fe60806040526004361061003f5760003560e01c80633115ee2714610044578063848564821461006057806392053b63146100a1578063a91b8314146100cc575b600080fd5b61005e60048036038101906100599190610754565b6100e8565b005b34801561006c57600080fd5b5061008760048036038101906100829190610754565b61040e565b604051610098959493929190610861565b60405180910390f35b3480156100ad57600080fd5b506100b6610574565b6040516100c391906108c2565b60405180910390f35b6100e660048036038101906100e19190610a12565b61057a565b005b6000811180156100fa57506000548111155b61010357600080fd5b6000600160008381526020019081526020016000206040518060a00160405290816000820154815260200160018201805461013d90610ab9565b80601f016020809104026020016040519081016040528092919081815260200182805461016990610ab9565b80156101b65780601f1061018b576101008083540402835291602001916101b6565b820191906000526020600020905b81548152906001019060200180831161019957829003601f168201915b505050505081526020016002820180546101cf90610ab9565b80601f01602080910402602001604051908101604052809291908181526020018280546101fb90610ab9565b80156102485780601f1061021d57610100808354040283529160200191610248565b820191906000526020600020905b81548152906001019060200180831161022b57829003601f168201915b50505050508152602001600382015481526020016004820160009054906101000a900473ffffffffffffffffffffffffffffffffffffffff1673ffffffffffffffffffffffffffffffffffffffff1673ffffffffffffffffffffffffffffffffffffffff168152505090506000816080015190508073ffffffffffffffffffffffffffffffffffffffff166108fc349081150290604051600060405180830381858888f19350505050158015610302573d6000803e3d6000fd5b503482606001516103139190610b19565b826060018181525050816001600085815260200190815260200160002060008201518160000155602082015181600101908161034f9190610cf9565b5060408201518160020190816103659190610cf9565b506060820151816003015560808201518160040160006101000a81548173ffffffffffffffffffffffffffffffffffffffff021916908373ffffffffffffffffffffffffffffffffffffffff1602179055509050507f7e51198e5c0a884efdde742e04b2abf8d8f4e756f4e3a18864cebe06c6e03f71838360200151846040015185606001518660800151604051610401959493929190610861565b60405180910390a1505050565b600160205280600052604060002060009150905080600001549080600101805461043790610ab9565b80601f016020809104026020016040519081016040528092919081815260200182805461046390610ab9565b80156104b05780601f10610485576101008083540402835291602001916104b0565b820191906000526020600020905b81548152906001019060200180831161049357829003601f168201915b5050505050908060020180546104c590610ab9565b80601f01602080910402602001604051908101604052809291908181526020018280546104f190610ab9565b801561053e5780601f106105135761010080835404028352916020019161053e565b820191906000526020600020905b81548152906001019060200180831161052157829003601f168201915b5050505050908060030154908060040160009054906101000a900473ffffffffffffffffffffffffffffffffffffffff16905085565b60005481565b600082511161058857600080fd5b600081511161059657600080fd5b600073ffffffffffffffffffffffffffffffffffffffff163373ffffffffffffffffffffffffffffffffffffffff16036105cf57600080fd5b6000808154809291906105e190610dcb565b91905055506040518060a001604052806000548152602001838152602001828152602001600081526020013373ffffffffffffffffffffffffffffffffffffffff1681525060016000805481526020019081526020016000206000820151816000015560208201518160010190816106599190610cf9565b50604082015181600201908161066f9190610cf9565b506060820151816003015560808201518160040160006101000a81548173ffffffffffffffffffffffffffffffffffffffff021916908373ffffffffffffffffffffffffffffffffffffffff1602179055509050507fc1d8dfa99b3f84f95d3f0bc4a768addeb97b83b20aef7f9cb6729e126bafd2f960005483836000336040516106fe959493929190610e4e565b60405180910390a15050565b6000604051905090565b600080fd5b600080fd5b6000819050919050565b6107318161071e565b811461073c57600080fd5b50565b60008135905061074e81610728565b92915050565b60006020828403121561076a57610769610714565b5b60006107788482850161073f565b91505092915050565b61078a8161071e565b82525050565b600081519050919050565b600082825260208201905092915050565b60005b838110156107ca5780820151818401526020810190506107af565b60008484015250505050565b6000601f19601f8301169050919050565b60006107f282610790565b6107fc818561079b565b935061080c8185602086016107ac565b610815816107d6565b840191505092915050565b600073ffffffffffffffffffffffffffffffffffffffff82169050919050565b600061084b82610820565b9050919050565b61085b81610840565b82525050565b600060a0820190506108766000830188610781565b818103602083015261088881876107e7565b9050818103604083015261089c81866107e7565b90506108ab6060830185610781565b6108b86080830184610852565b9695505050505050565b60006020820190506108d76000830184610781565b92915050565b600080fd5b600080fd5b7f4e487b7100000000000000000000000000000000000000000000000000000000600052604160045260246000fd5b61091f826107d6565b810181811067ffffffffffffffff8211171561093e5761093d6108e7565b5b80604052505050565b600061095161070a565b905061095d8282610916565b919050565b600067ffffffffffffffff82111561097d5761097c6108e7565b5b610986826107d6565b9050602081019050919050565b82818337600083830152505050565b60006109b56109b084610962565b610947565b9050828152602081018484840111156109d1576109d06108e2565b5b6109dc848285610993565b509392505050565b600082601f8301126109f9576109f86108dd565b5b8135610a098482602086016109a2565b91505092915050565b60008060408385031215610a2957610a28610714565b5b600083013567ffffffffffffffff811115610a4757610a46610719565b5b610a53858286016109e4565b925050602083013567ffffffffffffffff811115610a7457610a73610719565b5b610a80858286016109e4565b9150509250929050565b7f4e487b7100000000000000000000000000000000000000000000000000000000600052602260045260246000fd5b60006002820490506001821680610ad157607f821691505b602082108103610ae457610ae3610a8a565b5b50919050565b7f4e487b7100000000000000000000000000000000000000000000000000000000600052601160045260246000fd5b6000610b248261071e565b9150610b2f8361071e565b9250828201905080821115610b4757610b46610aea565b5b92915050565b60008190508160005260206000209050919050565b60006020601f8301049050919050565b600082821b905092915050565b600060088302610baf7fffffffffffffffffffffffffffffffffffffffffffffffffffffffffffffffff82610b72565b610bb98683610b72565b95508019841693508086168417925050509392505050565b6000819050919050565b6000610bf6610bf1610bec8461071e565b610bd1565b61071e565b9050919050565b6000819050919050565b610c1083610bdb565b610c24610c1c82610bfd565b848454610b7f565b825550505050565b600090565b610c39610c2c565b610c44818484610c07565b505050565b5b81811015610c6857610c5d600082610c31565b600181019050610c4a565b5050565b601f821115610cad57610c7e81610b4d565b610c8784610b62565b81016020851015610c96578190505b610caa610ca285610b62565b830182610c49565b50505b505050565b600082821c905092915050565b6000610cd060001984600802610cb2565b1980831691505092915050565b6000610ce98383610cbf565b9150826002028217905092915050565b610d0282610790565b67ffffffffffffffff811115610d1b57610d1a6108e7565b5b610d258254610ab9565b610d30828285610c6c565b600060209050601f831160018114610d635760008415610d51578287015190505b610d5b8582610cdd565b865550610dc3565b601f198416610d7186610b4d565b60005b82811015610d9957848901518255600182019150602085019450602081019050610d74565b86831015610db65784890151610db2601f891682610cbf565b8355505b6001600288020188555050505b505050505050565b6000610dd68261071e565b91507fffffffffffffffffffffffffffffffffffffffffffffffffffffffffffffffff8203610e0857610e07610aea565b5b600182019050919050565b6000819050919050565b6000610e38610e33610e2e84610e13565b610bd1565b61071e565b9050919050565b610e4881610e1d565b82525050565b600060a082019050610e636000830188610781565b8181036020830152610e7581876107e7565b90508181036040830152610e8981866107e7565b9050610e986060830185610e3f565b610ea56080830184610852565b969550505050505056fea2646970667358221220b1c2890b2833f2050174d1320826659ced321610fb4e720e502f4d6a1971344964736f6c63430008130033",
  "immutableReferences": {},
  "source": "// SPDX-License-Identifier: MIT\npragma solidity >=0.4.22 <0.9.0;\n\ncontract Donation {\n  // Keep track of total no. of images\n  uint256 public imageCount = 0;\n\n  // Image data to store\n  struct Image {\n    uint256 id;\n    string hash;\n    string description;\n    uint256 donationAmount;\n    address payable author;\n  }\n\n  mapping(uint256 => Image) public images;\n\n  event ImageCreated(\n    uint256 id,\n    string hash,\n    string description,\n    uint256 donationAmount,\n    address payable author\n  );\n\n  event DonateImage (\n    uint256 id,\n    string hash,\n    string description,\n    uint256 donationAmount,\n    address payable author \n  );\n\n  // Create an image\n  function uploadImage(string memory _imgHash, string memory _description) public payable {\n    // Check conditions\n    require(bytes(_imgHash).length > 0);\n    require(bytes(_description).length > 0);\n    require(msg.sender != address(0x0));\n\n    // Increate image count\n    imageCount++;\n\n    // Save image into mapping\n    images[imageCount] = Image(imageCount, _imgHash, _description, 0, payable(msg.sender));\n\n    // Emit event\n    emit ImageCreated(imageCount, _imgHash, _description, 0, payable(msg.sender));\n  }\n\n  // Donate an image\n  function donateImage(uint256 _id) public payable {\n    require(_id > 0 && _id <= imageCount);\n\n    // Get image from mapping\n    Image memory _image = images[_id];\n\n    // Get address of Author\n    address payable _author = _image.author;\n\n    // Transfer donation amount\n    _author.transfer(msg.value);\n\n    // Set donation for image\n    _image.donationAmount = _image.donationAmount + msg.value;\n\n    // Set image to mapping\n    images[_id] = _image;\n\n    emit DonateImage(_id, _image.hash, _image.description, _image.donationAmount, _image.author);\n  }\n}\n",
  "sourcePath": "/Users/imsks/Public/git-repos/web3/buy-me-a-chai/contracts/Donation.sol",
  "compiler": {
    "name": "solc",
    "version": "0.8.19+commit.7dd6d404.Emscripten.clang"
  },
  "schemaVersion": "3.4.13",
  "updatedAt": "2023-04-13T04:35:19.685Z",
  "networkType": "ethereum",
  "devdoc": {
    "kind": "dev",
    "methods": {},
    "version": 1
  },
  "userdoc": {
    "kind": "user",
    "methods": {},
    "version": 1
  }
}